{
  "_format": "hh-sol-artifact-1",
  "contractName": "ProofMint",
  "sourceName": "contracts/ProofMint.sol",
  "abi": [
    {
      "inputs": [
        {
          "internalType": "string",
          "name": "name_",
          "type": "string"
        },
        {
          "internalType": "string",
          "name": "symbol_",
          "type": "string"
        }
      ],
      "stateMutability": "nonpayable",
      "type": "constructor"
    },
    {
      "inputs": [
        {
          "internalType": "address",
          "name": "sender",
          "type": "address"
        },
        {
          "internalType": "uint256",
          "name": "tokenId",
          "type": "uint256"
        },
        {
          "internalType": "address",
          "name": "owner",
          "type": "address"
        }
      ],
      "name": "ERC721IncorrectOwner",
      "type": "error"
    },
    {
      "inputs": [
        {
          "internalType": "address",
          "name": "operator",
          "type": "address"
        },
        {
          "internalType": "uint256",
          "name": "tokenId",
          "type": "uint256"
        }
      ],
      "name": "ERC721InsufficientApproval",
      "type": "error"
    },
    {
      "inputs": [
        {
          "internalType": "address",
          "name": "approver",
          "type": "address"
        }
      ],
      "name": "ERC721InvalidApprover",
      "type": "error"
    },
    {
      "inputs": [
        {
          "internalType": "address",
          "name": "operator",
          "type": "address"
        }
      ],
      "name": "ERC721InvalidOperator",
      "type": "error"
    },
    {
      "inputs": [
        {
          "internalType": "address",
          "name": "owner",
          "type": "address"
        }
      ],
      "name": "ERC721InvalidOwner",
      "type": "error"
    },
    {
      "inputs": [
        {
          "internalType": "address",
          "name": "receiver",
          "type": "address"
        }
      ],
      "name": "ERC721InvalidReceiver",
      "type": "error"
    },
    {
      "inputs": [
        {
          "internalType": "address",
          "name": "sender",
          "type": "address"
        }
      ],
      "name": "ERC721InvalidSender",
      "type": "error"
    },
    {
      "inputs": [
        {
          "internalType": "uint256",
          "name": "tokenId",
          "type": "uint256"
        }
      ],
      "name": "ERC721NonexistentToken",
      "type": "error"
    },
    {
      "anonymous": false,
      "inputs": [
        {
          "indexed": true,
          "internalType": "address",
          "name": "owner",
          "type": "address"
        },
        {
          "indexed": true,
          "internalType": "address",
          "name": "approved",
          "type": "address"
        },
        {
          "indexed": true,
          "internalType": "uint256",
          "name": "tokenId",
          "type": "uint256"
        }
      ],
      "name": "Approval",
      "type": "event"
    },
    {
      "anonymous": false,
      "inputs": [
        {
          "indexed": true,
          "internalType": "address",
          "name": "owner",
          "type": "address"
        },
        {
          "indexed": true,
          "internalType": "address",
          "name": "operator",
          "type": "address"
        },
        {
          "indexed": false,
          "internalType": "bool",
          "name": "approved",
          "type": "bool"
        }
      ],
      "name": "ApprovalForAll",
      "type": "event"
    },
    {
      "anonymous": false,
      "inputs": [
        {
          "indexed": false,
          "internalType": "uint256",
          "name": "_fromTokenId",
          "type": "uint256"
        },
        {
          "indexed": false,
          "internalType": "uint256",
          "name": "_toTokenId",
          "type": "uint256"
        }
      ],
      "name": "BatchMetadataUpdate",
      "type": "event"
    },
    {
      "anonymous": false,
      "inputs": [
        {
          "indexed": false,
          "internalType": "uint256",
          "name": "_tokenId",
          "type": "uint256"
        }
      ],
      "name": "MetadataUpdate",
      "type": "event"
    },
    {
      "anonymous": false,
      "inputs": [
        {
          "indexed": true,
          "internalType": "address",
          "name": "from",
          "type": "address"
        },
        {
          "indexed": true,
          "internalType": "address",
          "name": "to",
          "type": "address"
        },
        {
          "indexed": true,
          "internalType": "uint256",
          "name": "tokenId",
          "type": "uint256"
        }
      ],
      "name": "Transfer",
      "type": "event"
    },
    {
      "inputs": [
        {
          "internalType": "address",
          "name": "to",
          "type": "address"
        },
        {
          "internalType": "uint256",
          "name": "tokenId",
          "type": "uint256"
        }
      ],
      "name": "approve",
      "outputs": [],
      "stateMutability": "nonpayable",
      "type": "function"
    },
    {
      "inputs": [
        {
          "internalType": "address",
          "name": "owner",
          "type": "address"
        }
      ],
      "name": "balanceOf",
      "outputs": [
        {
          "internalType": "uint256",
          "name": "",
          "type": "uint256"
        }
      ],
      "stateMutability": "view",
      "type": "function"
    },
    {
      "inputs": [
        {
          "internalType": "uint256",
          "name": "tokenId",
          "type": "uint256"
        }
      ],
      "name": "getApproved",
      "outputs": [
        {
          "internalType": "address",
          "name": "",
          "type": "address"
        }
      ],
      "stateMutability": "view",
      "type": "function"
    },
    {
      "inputs": [
        {
          "internalType": "address",
          "name": "owner",
          "type": "address"
        },
        {
          "internalType": "address",
          "name": "operator",
          "type": "address"
        }
      ],
      "name": "isApprovedForAll",
      "outputs": [
        {
          "internalType": "bool",
          "name": "",
          "type": "bool"
        }
      ],
      "stateMutability": "view",
      "type": "function"
    },
    {
      "inputs": [
        {
          "internalType": "address",
          "name": "to",
          "type": "address"
        },
        {
          "internalType": "string",
          "name": "uri",
          "type": "string"
        }
      ],
      "name": "mintWithURI",
      "outputs": [
        {
          "internalType": "uint256",
          "name": "",
          "type": "uint256"
        }
      ],
      "stateMutability": "nonpayable",
      "type": "function"
    },
    {
      "inputs": [],
      "name": "name",
      "outputs": [
        {
          "internalType": "string",
          "name": "",
          "type": "string"
        }
      ],
      "stateMutability": "view",
      "type": "function"
    },
    {
      "inputs": [],
      "name": "nextId",
      "outputs": [
        {
          "internalType": "uint256",
          "name": "",
          "type": "uint256"
        }
      ],
      "stateMutability": "view",
      "type": "function"
    },
    {
      "inputs": [
        {
          "internalType": "uint256",
          "name": "tokenId",
          "type": "uint256"
        }
      ],
      "name": "ownerOf",
      "outputs": [
        {
          "internalType": "address",
          "name": "",
          "type": "address"
        }
      ],
      "stateMutability": "view",
      "type": "function"
    },
    {
      "inputs": [
        {
          "internalType": "address",
          "name": "from",
          "type": "address"
        },
        {
          "internalType": "address",
          "name": "to",
          "type": "address"
        },
        {
          "internalType": "uint256",
          "name": "tokenId",
          "type": "uint256"
        }
      ],
      "name": "safeTransferFrom",
      "outputs": [],
      "stateMutability": "nonpayable",
      "type": "function"
    },
    {
      "inputs": [
        {
          "internalType": "address",
          "name": "from",
          "type": "address"
        },
        {
          "internalType": "address",
          "name": "to",
          "type": "address"
        },
        {
          "internalType": "uint256",
          "name": "tokenId",
          "type": "uint256"
        },
        {
          "internalType": "bytes",
          "name": "data",
          "type": "bytes"
        }
      ],
      "name": "safeTransferFrom",
      "outputs": [],
      "stateMutability": "nonpayable",
      "type": "function"
    },
    {
      "inputs": [
        {
          "internalType": "address",
          "name": "operator",
          "type": "address"
        },
        {
          "internalType": "bool",
          "name": "approved",
          "type": "bool"
        }
      ],
      "name": "setApprovalForAll",
      "outputs": [],
      "stateMutability": "nonpayable",
      "type": "function"
    },
    {
      "inputs": [
        {
          "internalType": "bytes4",
          "name": "interfaceId",
          "type": "bytes4"
        }
      ],
      "name": "supportsInterface",
      "outputs": [
        {
          "internalType": "bool",
          "name": "",
          "type": "bool"
        }
      ],
      "stateMutability": "view",
      "type": "function"
    },
    {
      "inputs": [],
      "name": "symbol",
      "outputs": [
        {
          "internalType": "string",
          "name": "",
          "type": "string"
        }
      ],
      "stateMutability": "view",
      "type": "function"
    },
    {
      "inputs": [
        {
          "internalType": "uint256",
          "name": "tokenId",
          "type": "uint256"
        }
      ],
      "name": "tokenURI",
      "outputs": [
        {
          "internalType": "string",
          "name": "",
          "type": "string"
        }
      ],
      "stateMutability": "view",
      "type": "function"
    },
    {
      "inputs": [
        {
          "internalType": "address",
          "name": "from",
          "type": "address"
        },
        {
          "internalType": "address",
          "name": "to",
          "type": "address"
        },
        {
          "internalType": "uint256",
          "name": "tokenId",
          "type": "uint256"
        }
      ],
      "name": "transferFrom",
      "outputs": [],
      "stateMutability": "nonpayable",
      "type": "function"
    }
  ],
  "bytecode": "0x60806040523480156200001157600080fd5b506040516200162538038062001625833981016040819052620000349162000123565b818160006200004483826200021c565b5060016200005382826200021c565b5050505050620002e8565b634e487b7160e01b600052604160045260246000fd5b600082601f8301126200008657600080fd5b81516001600160401b0380821115620000a357620000a36200005e565b604051601f8301601f19908116603f01168101908282118183101715620000ce57620000ce6200005e565b81604052838152602092508683858801011115620000eb57600080fd5b600091505b838210156200010f5785820183015181830184015290820190620000f0565b600093810190920192909252949350505050565b600080604083850312156200013757600080fd5b82516001600160401b03808211156200014f57600080fd5b6200015d8683870162000074565b935060208501519150808211156200017457600080fd5b50620001838582860162000074565b9150509250929050565b600181811c90821680620001a257607f821691505b602082108103620001c357634e487b7160e01b600052602260045260246000fd5b50919050565b601f8211156200021757600081815260208120601f850160051c81016020861015620001f25750805b601f850160051c820191505b818110156200021357828155600101620001fe565b5050505b505050565b81516001600160401b038111156200023857620002386200005e565b62000250816200024984546200018d565b84620001c9565b602080601f8311600181146200028857600084156200026f5750858301515b600019600386901b1c1916600185901b17855562000213565b600085815260208120601f198616915b82811015620002b95788860151825594840194600190910190840162000298565b5085821015620002d85787850151600019600388901b60f8161c191681555b5050505050600190811b01905550565b61132d80620002f86000396000f3fe608060405234801561001057600080fd5b50600436106100f55760003560e01c806361b8ce8c11610097578063a22cb46511610066578063a22cb465146101f5578063b88d4fde14610208578063c87b56dd1461021b578063e985e9c51461022e57600080fd5b806361b8ce8c146101be5780636352211e146101c757806370a08231146101da57806395d89b41146101ed57600080fd5b8063095ea7b3116100d3578063095ea7b3146101625780630e9806021461017757806323b872dd1461019857806342842e0e146101ab57600080fd5b806301ffc9a7146100fa57806306fdde0314610122578063081812fc14610137575b600080fd5b61010d610108366004610df8565b610241565b60405190151581526020015b60405180910390f35b61012a61026c565b6040516101199190610e65565b61014a610145366004610e78565b6102fe565b6040516001600160a01b039091168152602001610119565b610175610170366004610ead565b610327565b005b61018a610185366004610f63565b610336565b604051908152602001610119565b6101756101a6366004610fc5565b610386565b6101756101b9366004610fc5565b610416565b61018a60075481565b61014a6101d5366004610e78565b610436565b61018a6101e8366004611001565b610441565b61012a610489565b61017561020336600461101c565b610498565b610175610216366004611058565b6104a3565b61012a610229366004610e78565b6104bb565b61010d61023c3660046110d4565b6105c4565b60006001600160e01b03198216632483248360e11b14806102665750610266826105f2565b92915050565b60606000805461027b90611107565b80601f01602080910402602001604051908101604052809291908181526020018280546102a790611107565b80156102f45780601f106102c9576101008083540402835291602001916102f4565b820191906000526020600020905b8154815290600101906020018083116102d757829003601f168201915b5050505050905090565b600061030982610642565b506000828152600460205260409020546001600160a01b0316610266565b61033282823361067b565b5050565b6000806001600160a01b0384161561034e5783610350565b335b9050600060076000815461036390611141565b918290555090506103748282610688565b61037e81856106a2565b949350505050565b6001600160a01b0382166103b557604051633250574960e11b8152600060048201526024015b60405180910390fd5b60006103c28383336106f2565b9050836001600160a01b0316816001600160a01b031614610410576040516364283d7b60e01b81526001600160a01b03808616600483015260248201849052821660448201526064016103ac565b50505050565b610431838383604051806020016040528060008152506104a3565b505050565b600061026682610642565b60006001600160a01b03821661046d576040516322718ad960e21b8152600060048201526024016103ac565b506001600160a01b031660009081526003602052604090205490565b60606001805461027b90611107565b6103323383836107eb565b6104ae848484610386565b610410338585858561088a565b60606104c682610642565b50600082815260066020526040812080546104e090611107565b80601f016020809104026020016040519081016040528092919081815260200182805461050c90611107565b80156105595780601f1061052e57610100808354040283529160200191610559565b820191906000526020600020905b81548152906001019060200180831161053c57829003601f168201915b50505050509050600061057760408051602081019091526000815290565b90508051600003610589575092915050565b8151156105bb5780826040516020016105a3929190611168565b60405160208183030381529060405292505050919050565b61037e846109b5565b6001600160a01b03918216600090815260056020908152604080832093909416825291909152205460ff1690565b60006001600160e01b031982166380ac58cd60e01b148061062357506001600160e01b03198216635b5e139f60e01b145b8061026657506301ffc9a760e01b6001600160e01b0319831614610266565b6000818152600260205260408120546001600160a01b03168061026657604051637e27328960e01b8152600481018490526024016103ac565b6104318383836001610a2a565b610332828260405180602001604052806000815250610b30565b60008281526006602052604090206106ba82826111dd565b506040518281527ff8e1a15aba9398e019f0b49df1a4fde98ee17ae345cb5f6b5e2c27f5033e8ce79060200160405180910390a15050565b6000828152600260205260408120546001600160a01b039081169083161561071f5761071f818486610b48565b6001600160a01b0381161561075d5761073c600085600080610a2a565b6001600160a01b038116600090815260036020526040902080546000190190555b6001600160a01b0385161561078c576001600160a01b0385166000908152600360205260409020805460010190555b60008481526002602052604080822080546001600160a01b0319166001600160a01b0389811691821790925591518793918516917fddf252ad1be2c89b69c2b068fc378daa952ba7f163c4a11628f55a4df523b3ef91a4949350505050565b6001600160a01b03821661081d57604051630b61174360e31b81526001600160a01b03831660048201526024016103ac565b6001600160a01b03838116600081815260056020908152604080832094871680845294825291829020805460ff191686151590811790915591519182527f17307eab39ab6107e8899845ad3d59bd9653f200f220920489ca2b5937696c31910160405180910390a3505050565b6001600160a01b0383163b156109ae57604051630a85bd0160e11b81526001600160a01b0384169063150b7a02906108cc90889088908790879060040161129d565b6020604051808303816000875af1925050508015610907575060408051601f3d908101601f19168201909252610904918101906112da565b60015b610970573d808015610935576040519150601f19603f3d011682016040523d82523d6000602084013e61093a565b606091505b50805160000361096857604051633250574960e11b81526001600160a01b03851660048201526024016103ac565b805160208201fd5b6001600160e01b03198116630a85bd0160e11b146109ac57604051633250574960e11b81526001600160a01b03851660048201526024016103ac565b505b5050505050565b60606109c082610642565b5060006109d860408051602081019091526000815290565b905060008151116109f85760405180602001604052806000815250610a23565b80610a0284610bac565b604051602001610a13929190611168565b6040516020818303038152906040525b9392505050565b8080610a3e57506001600160a01b03821615155b15610b00576000610a4e84610642565b90506001600160a01b03831615801590610a7a5750826001600160a01b0316816001600160a01b031614155b8015610a8d5750610a8b81846105c4565b155b15610ab65760405163a9fbf51f60e01b81526001600160a01b03841660048201526024016103ac565b8115610afe5783856001600160a01b0316826001600160a01b03167f8c5be1e5ebec7d5bd14f71427d1e84f3dd0314c0f7b2291e5b200ac8c7c3b92560405160405180910390a45b505b5050600090815260046020526040902080546001600160a01b0319166001600160a01b0392909216919091179055565b610b3a8383610c3f565b61043133600085858561088a565b610b53838383610ca4565b610431576001600160a01b038316610b8157604051637e27328960e01b8152600481018290526024016103ac565b60405163177e802f60e01b81526001600160a01b0383166004820152602481018290526044016103ac565b60606000610bb983610d07565b600101905060008167ffffffffffffffff811115610bd957610bd9610ed7565b6040519080825280601f01601f191660200182016040528015610c03576020820181803683370190505b5090508181016020015b600019016f181899199a1a9b1b9c1cb0b131b232b360811b600a86061a8153600a8504945084610c0d57509392505050565b6001600160a01b038216610c6957604051633250574960e11b8152600060048201526024016103ac565b6000610c77838360006106f2565b90506001600160a01b03811615610431576040516339e3563760e11b8152600060048201526024016103ac565b60006001600160a01b0383161580159061037e5750826001600160a01b0316846001600160a01b03161480610cde5750610cde84846105c4565b8061037e5750506000908152600460205260409020546001600160a01b03908116911614919050565b60008072184f03e93ff9f4daa797ed6e38ed64bf6a1f0160401b8310610d465772184f03e93ff9f4daa797ed6e38ed64bf6a1f0160401b830492506040015b6d04ee2d6d415b85acef81000000008310610d72576d04ee2d6d415b85acef8100000000830492506020015b662386f26fc100008310610d9057662386f26fc10000830492506010015b6305f5e1008310610da8576305f5e100830492506008015b6127108310610dbc57612710830492506004015b60648310610dce576064830492506002015b600a83106102665760010192915050565b6001600160e01b031981168114610df557600080fd5b50565b600060208284031215610e0a57600080fd5b8135610a2381610ddf565b60005b83811015610e30578181015183820152602001610e18565b50506000910152565b60008151808452610e51816020860160208601610e15565b601f01601f19169290920160200192915050565b602081526000610a236020830184610e39565b600060208284031215610e8a57600080fd5b5035919050565b80356001600160a01b0381168114610ea857600080fd5b919050565b60008060408385031215610ec057600080fd5b610ec983610e91565b946020939093013593505050565b634e487b7160e01b600052604160045260246000fd5b600067ffffffffffffffff80841115610f0857610f08610ed7565b604051601f8501601f19908116603f01168101908282118183101715610f3057610f30610ed7565b81604052809350858152868686011115610f4957600080fd5b858560208301376000602087830101525050509392505050565b60008060408385031215610f7657600080fd5b610f7f83610e91565b9150602083013567ffffffffffffffff811115610f9b57600080fd5b8301601f81018513610fac57600080fd5b610fbb85823560208401610eed565b9150509250929050565b600080600060608486031215610fda57600080fd5b610fe384610e91565b9250610ff160208501610e91565b9150604084013590509250925092565b60006020828403121561101357600080fd5b610a2382610e91565b6000806040838503121561102f57600080fd5b61103883610e91565b91506020830135801515811461104d57600080fd5b809150509250929050565b6000806000806080858703121561106e57600080fd5b61107785610e91565b935061108560208601610e91565b925060408501359150606085013567ffffffffffffffff8111156110a857600080fd5b8501601f810187136110b957600080fd5b6110c887823560208401610eed565b91505092959194509250565b600080604083850312156110e757600080fd5b6110f083610e91565b91506110fe60208401610e91565b90509250929050565b600181811c9082168061111b57607f821691505b60208210810361113b57634e487b7160e01b600052602260045260246000fd5b50919050565b60006001820161116157634e487b7160e01b600052601160045260246000fd5b5060010190565b6000835161117a818460208801610e15565b83519083019061118e818360208801610e15565b01949350505050565b601f82111561043157600081815260208120601f850160051c810160208610156111be5750805b601f850160051c820191505b818110156109ac578281556001016111ca565b815167ffffffffffffffff8111156111f7576111f7610ed7565b61120b816112058454611107565b84611197565b602080601f83116001811461124057600084156112285750858301515b600019600386901b1c1916600185901b1785556109ac565b600085815260208120601f198616915b8281101561126f57888601518255948401946001909101908401611250565b508582101561128d5787850151600019600388901b60f8161c191681555b5050505050600190811b01905550565b6001600160a01b03858116825284166020820152604081018390526080606082018190526000906112d090830184610e39565b9695505050505050565b6000602082840312156112ec57600080fd5b8151610a2381610ddf56fea2646970667358221220b00ec7d14a516dc276447dba0ddf0ee76e7a852a614bf855da15df0fcf7aa93364736f6c63430008140033",
  "linkReferences": {},
  "deployedLinkReferences": {}
}